{
    "contractName": "FundMe",
    "abi": [
        {
            "inputs": [
                {
                    "internalType": "uint256",
                    "name": "_lockTime",
                    "type": "uint256"
                },
                {
                    "internalType": "address",
                    "name": "dataFeedAddr",
                    "type": "address"
                }
            ],
            "stateMutability": "nonpayable",
            "type": "constructor"
        },
        {
            "inputs": [],
            "name": "fund",
            "outputs": [],
            "stateMutability": "payable",
            "type": "function"
        },
        {
            "inputs": [
                {
                    "internalType": "address",
                    "name": "",
                    "type": "address"
                }
            ],
            "name": "funderToAmount",
            "outputs": [
                {
                    "internalType": "uint256",
                    "name": "",
                    "type": "uint256"
                }
            ],
            "stateMutability": "view",
            "type": "function"
        },
        {
            "inputs": [],
            "name": "getChainlinkDataFeedLatestAnswer",
            "outputs": [
                {
                    "internalType": "int256",
                    "name": "",
                    "type": "int256"
                }
            ],
            "stateMutability": "view",
            "type": "function"
        },
        {
            "inputs": [],
            "name": "getFund",
            "outputs": [],
            "stateMutability": "nonpayable",
            "type": "function"
        },
        {
            "inputs": [],
            "name": "getFundSuccess",
            "outputs": [
                {
                    "internalType": "bool",
                    "name": "",
                    "type": "bool"
                }
            ],
            "stateMutability": "view",
            "type": "function"
        },
        {
            "inputs": [],
            "name": "owner",
            "outputs": [
                {
                    "internalType": "address",
                    "name": "",
                    "type": "address"
                }
            ],
            "stateMutability": "view",
            "type": "function"
        },
        {
            "inputs": [],
            "name": "reFund",
            "outputs": [],
            "stateMutability": "nonpayable",
            "type": "function"
        },
        {
            "inputs": [
                {
                    "internalType": "address",
                    "name": "_erc20Addr",
                    "type": "address"
                }
            ],
            "name": "setErc20Addr",
            "outputs": [],
            "stateMutability": "nonpayable",
            "type": "function"
        },
        {
            "inputs": [
                {
                    "internalType": "address",
                    "name": "funder",
                    "type": "address"
                },
                {
                    "internalType": "uint256",
                    "name": "amountToUpdate",
                    "type": "uint256"
                }
            ],
            "name": "setFunderToAmount",
            "outputs": [],
            "stateMutability": "nonpayable",
            "type": "function"
        },
        {
            "inputs": [
                {
                    "internalType": "address",
                    "name": "newOwner",
                    "type": "address"
                }
            ],
            "name": "transferOwnerShip",
            "outputs": [],
            "stateMutability": "nonpayable",
            "type": "function"
        }
    ],
    "bytecode": "6080604052678ac7230489e800006001556006805460ff60a01b191690553480156027575f80fd5b50604051610a01380380610a018339810160408190526044916078565b600280546001600160a01b039092166001600160a01b031992831617905560038054909116331790554260045560055560b0565b5f80604083850312156088575f80fd5b825160208401519092506001600160a01b038116811460a5575f80fd5b809150509250929050565b610944806100bd5f395ff3fe60806040526004361061008f575f3560e01c80638edd6eb6116100575780638edd6eb61461015c578063b60d428814610170578063bea4dfb514610178578063d39cf0061461018c578063da4658e0146101ab575f80fd5b80630ff0a4df1461009357806313ffff01146100a95780634407e1e8146100c85780638863dd1a146101065780638da5cb5b14610125575b5f80fd5b34801561009e575f80fd5b506100a76101db565b005b3480156100b4575f80fd5b506100a76100c33660046107ba565b610394565b3480156100d3575f80fd5b506100f36100e23660046107ba565b5f6020819052908152604090205481565b6040519081526020015b60405180910390f35b348015610111575f80fd5b506100a76101203660046107ba565b6103e0565b348015610130575f80fd5b50600354610144906001600160a01b031681565b6040516001600160a01b0390911681526020016100fd565b348015610167575f80fd5b506100a761042c565b6100a76105b6565b348015610183575f80fd5b506100f3610664565b348015610197575f80fd5b506100a76101a63660046107d3565b6106e5565b3480156101b6575f80fd5b506006546101cb90600160a01b900460ff1681565b60405190151581526020016100fd565b6005546004546101eb919061080f565b4210156102365760405162461bcd60e51b81526020600482015260146024820152731dda5b991bddc81a5cc81b9bdd0818db1bdcd95960621b60448201526064015b60405180910390fd5b68056bc75e2d6310000061024947610773565b1061028a5760405162461bcd60e51b81526020600482015260116024820152701d185c99d95d081a5cc81c995858da1959607a1b604482015260640161022d565b335f90815260208190526040812054908190036102e95760405162461bcd60e51b815260206004820152601960248201527f7468657265206973206e6f742066756e6420666f7220796f7500000000000000604482015260640161022d565b335f818152602081905260408082205490519192918381818185875af1925050503d805f8114610334576040519150601f19603f3d011682016040523d82523d5f602084013e610339565b606091505b505080915050806103815760405162461bcd60e51b81526020600482015260126024820152711d1c985b9cd9995c881d1e0819985a5b195960721b604482015260640161022d565b5050335f90815260208190526040812055565b6003546001600160a01b031633146103be5760405162461bcd60e51b815260040161022d90610828565b600680546001600160a01b0319166001600160a01b0392909216919091179055565b6003546001600160a01b0316331461040a5760405162461bcd60e51b815260040161022d90610828565b600380546001600160a01b0319166001600160a01b0392909216919091179055565b60055460045461043c919061080f565b4210156104825760405162461bcd60e51b81526020600482015260146024820152731dda5b991bddc81a5cc81b9bdd0818db1bdcd95960621b604482015260640161022d565b6003546001600160a01b031633146104ac5760405162461bcd60e51b815260040161022d90610828565b68056bc75e2d631000006104bf47610773565b10156105055760405162461bcd60e51b81526020600482015260156024820152741d185c99d95d081a5cc81b9bdd081c995858da1959605a1b604482015260640161022d565b6040515f90339047908381818185875af1925050503d805f8114610544576040519150601f19603f3d011682016040523d82523d5f602084013e610549565b606091505b505080915050806105915760405162461bcd60e51b81526020600482015260126024820152711d1c985b9cd9995c881d1e0819985a5b195960721b604482015260640161022d565b50335f908152602081905260408120556006805460ff60a01b1916600160a01b179055565b6005546004546105c6919061080f565b42106106075760405162461bcd60e51b815260206004820152601060248201526f1dda5b991bddc81a5cc818db1bdcd95960821b604482015260640161022d565b60015461061334610773565b10156106515760405162461bcd60e51b815260206004820152600d60248201526c0e6cadcc840dadee4ca408aa89609b1b604482015260640161022d565b335f908152602081905260409020349055565b5f8060025f9054906101000a90046001600160a01b03166001600160a01b031663feaf968c6040518163ffffffff1660e01b815260040160a060405180830381865afa1580156106b6573d5f803e3d5ffd5b505050506040513d601f19601f820116820180604052508101906106da919061088a565b509195945050505050565b6006546001600160a01b031633146107585760405162461bcd60e51b815260206004820152603060248201527f796f7520646f206e6f742068617665207065726d697373696f6e20746f20636160448201526f3636103a3434b990333ab731ba34b7b760811b606482015260840161022d565b6001600160a01b039091165f90815260208190526040902055565b5f8061077d610664565b90506305f5e10061078e82856108d8565b61079891906108ef565b9392505050565b80356001600160a01b03811681146107b5575f80fd5b919050565b5f602082840312156107ca575f80fd5b6107988261079f565b5f80604083850312156107e4575f80fd5b6107ed8361079f565b946020939093013593505050565b634e487b7160e01b5f52601160045260245ffd5b80820180821115610822576108226107fb565b92915050565b60208082526029908201527f746869732066756e6374696f6e2063616e206f6e6c792062652063616c6c656460408201526810313c9037bbb732b960b91b606082015260800190565b805169ffffffffffffffffffff811681146107b5575f80fd5b5f805f805f60a0868803121561089e575f80fd5b6108a786610871565b602087015160408801516060890151929750909550935091506108cc60808701610871565b90509295509295909350565b8082028115828204841417610822576108226107fb565b5f8261090957634e487b7160e01b5f52601260045260245ffd5b50049056fea264697066735822122002fa2cfa4392c8c35601371ae8a58f9590e47dd97f119a937fb2e2f04da65ea264736f6c634300081a0033",
    "sourcePath": "c:/Users/Administrator/Desktop/study/GitHub/hardhat-project/contracts/FundMe.sol",
    "compiler": {
        "name": "solc",
        "version": "0.8.26+commit.8a97fa7a"
    },
    "functionHashes": {
        "fund()": "b60d4288",
        "funderToAmount(address)": "4407e1e8",
        "getChainlinkDataFeedLatestAnswer()": "bea4dfb5",
        "getFund()": "8edd6eb6",
        "getFundSuccess()": "da4658e0",
        "owner()": "8da5cb5b",
        "reFund()": "0ff0a4df",
        "setErc20Addr(address)": "13ffff01",
        "setFunderToAmount(address,uint256)": "d39cf006",
        "transferOwnerShip(address)": "8863dd1a"
    },
    "gasEstimates": {
        "creation": {
            "codeDepositCost": "474400",
            "executionCost": "infinite",
            "totalCost": "infinite"
        },
        "external": {
            "fund()": "infinite",
            "funderToAmount(address)": "2553",
            "getChainlinkDataFeedLatestAnswer()": "infinite",
            "getFund()": "infinite",
            "getFundSuccess()": "2414",
            "owner()": "2425",
            "reFund()": "infinite",
            "setErc20Addr(address)": "26732",
            "setFunderToAmount(address,uint256)": "24722",
            "transferOwnerShip(address)": "26776"
        },
        "internal": {
            "convertEthToUsd(uint256)": "infinite"
        }
    }
}